:1000000009C021C020C01FC01EC01DC07FC01BC0B2
:100010001AC019C011241FBECFE9CDBF10E0A0E661
:10002000B0E0EAEFF1E002C005900D92AC36B10706
:10003000D9F710E0ACE6B0E001C01D92A038B107DE
:10004000E1F789D0D8C0DCCFFF920F931F93CF93F5
:10005000DF93F82E80916C000F2D081BF0926C003E
:10006000A0E7B0E07FEF60E010E040E050E0C1E0EA
:10007000D0E0242FED91FC9111973097D1F082813F
:10008000902F980F981740F18181981728F5292F04
:1000900030E0892F8283ED91FC911197818190E06E
:1000A000821B930B272F30E0281739070CF4C90166
:1000B000782F4F5F5F4F129648305105D1F688B3C5
:1000C00060956823612B68BB872F8F0DDF91CF91DF
:1000D0001F910F91FF9008950480F581E02D1196F6
:1000E000FC93EE93CE0102C0880F991F2A95E2F788
:1000F000982F80818111192B692B83818183ED9148
:10010000FC91119780E020E030E0C4CF1F920F9265
:100110000FB60F9211242F933F934F935F936F93DA
:100120007F938F939F93AF93BF93EF93FF9386B784
:100130008BDF86BFFF91EF91BF91AF919F918F9120
:100140007F916F915F914F913F912F910F900FBED3
:100150000F901F901895DF93CF9300D000D0CDB7AC
:10016000DEB79FEF97BB83E083BF84E089BF96BF74
:1001700080E690E090936B0080936A0086E690E0C2
:100180009093650080936400909371008093700059
:1001900080E05ADF78942EE133E019821A821B82C4
:1001A0001C8289819A81AB81BC8180519742A04099
:1001B000B040A0F489819A81AB81BC810196A11DD8
:1001C000B11D89839A83AB83BC8389819A81AB817A
:1001D000BC8180519742A040B04060F3822F84518F
:1001E000893C08F03195230F20936900822F809578
:0A01F00080936300D2CFF894FFCF94
:0C01FA00000000C800000100000A000026
:00000001FF
